S01800004C696E6554726163696E675F636F64652E73726563C2
S1130000C6C000008DC20000E0C00000DEC00000D9
S1130010DCC00000DAC00000D8C00000D6C0000078
S1130020D4C00000D2C00000D0C00000CEC0000088
S1130030CCC00000CAC00000C8C00000C6C0000098
S1130040C4C00000C2C00000C0C00000BEC00000A8
S1130050BCC00000BAC00000B8C00000B6C00000B8
S1130060B4C00000B2C00000B0C00000AEC00000C8
S1130070ACC00000AAC00000A8C00000A6C00000D8
S1130080A4C00000A2C00000A0C000006E616E0009
S1130090696E660000407A10F35A00A0724E180987
S11300A00010A5D4E80000E87648170000E40B54DB
S11300B0020000CA9A3B000000E1F50500008096AA
S11300C09800000040420F000000A08601000000DC
S11300D0102700000000E803000000006400000096
S11300E000000A00000000000100000000002C765F
S11300F0D888DC674F0823DFC1DFAE59E1B1B7967A
S1130100E5E3E453C63AE651997696E8E6C28426D6
S1130110EB898C9B62ED407C6FFCEFBC9C9F40F2B2
S1130120BAA56FA5F490055A2AF75C936B6CF9672E
S11301306DC11BFCE0E40D47FEF520E6B500D0EDF3
S1130140902E0300943577050080841E080000205B
S11301504E0A000000C80C333333330F986E1283F9
S11301601141EF8D2114893BE65516CFFEE6DB18CD
S1130170D1844B381BF77C1D901DA4BBE424203292
S113018084725E228100C9F124ECA1E53D2711248B
S11301901FBECFEFD0E1DEBFCDBF11E0A0E0B1E0E4
S11301A0ECE4F9E300E00BBF02C007900D92AE311E
S11301B0B107D9F721E0AEE1B1E001C01D92A63A42
S11301C0B207E1F723D20C94A41C1ACF8FE39FE16A
S11301D00197F1F700C00000089520E030E008C066
S11301E00F920F900F920F900F920F902F5F3F4F2F
S11301F028173907A8F30895CF93C82FE7DF8C2F6A
S1130200807F85BB85B38E7F85BB85B38D7F85BBA2
S113021081E090E0E2DF85B3846085BB81E090E01B
S1130220DCDF85B38B7F85BB20E1C29FC001112435
S113023085BB85B38E7F85BB85B38D7F85BB81E010
S113024090E0CBDF85B3846085BB81E090E0C5DFBF
S113025085B38B7F85BBCF91089581E0CDCF089581
S1130260811104C080E8860FC7CF089580EC860F03
S1130270C3CF0895CF93C82FA9DF8C2F807F85BB70
S113028085B3816085BB85B38D7F85BB81E090E0BC
S1130290A4DF85B3846085BB81E090E09EDF85B3F5
S11302A08B7F85BB20E1C29FC001112485BB85B330
S11302B0816085BB85B38D7F85BB81E090E08DDF58
S11302C085B3846085BB81E090E087DF85B38B7F55
S11302D085BBCF910895CF93DF93EA01C1DF02C0BC
S11302E02196C8DF88818111FBCFDF91CF910895DA
S11302F0EF92FF920F931F93CF93DF93CDB7DEB7A7
S1130300C456D1090FB6F894DEBF0FBECDBFF82E88
S1130310E62E8E010F5F1F4F84E6F80111928A9535
S1130320E9F75F934F938CE091E09F938F931F9332
S11303300F930E94181CA8016E2D8F2DCCDF0F90F7
S11303400F900F900F900F900F90CC59DF4F0FB676
S1130350F894DEBF0FBECDBFDF91CF911F910F91F7
S1130360FF90EF9008952FEF86E791E021508040B1
S11303709040E1F700C000008FEF84BB85B38B7F12
S113038085BB8FE59AEE0197F1F700C0000080E28B
S113039033DF8FE19EE40197F1F700C0000080E2B3
S11303A02BDF88EC90E019DF80E226DF88E224DF8F
S11303B08CE022DF81E020DF86E01EDF4FE051E0A9
S11303C060E080E088CF08951092610080E487B9EE
S11303D087E886B980E88FBF089597B1907F8F70C2
S11303E0892B87B986B1806486B93699FECF84B1EA
S11303F095B1089580E090E02DC0FC01EE0FFF1F41
S1130400E25AFE4F208131811216130614F5FC01C5
S1130410EE0FFF1FE050FF4F408151812417350735
S11304203CF4FC01EE0FFF1FE050FF4F31832083AB
S1130430FC01EE0FFF1FE85CFE4F40815181421723
S113044053073CF4FC01EE0FFF1FE85CFE4F3183C1
S1130450208301968630910584F20895AF92BF926D
S1130460CF92DF92EF92FF920F931F93CF93DF937C
S1130470C0E0D0E046C0CE01880F991FFC01E05EC9
S1130480FE4F00811181FC01E45DFE4FA080B1802C
S11304900A151B0551F1FC01E25AFE4F608171817E
S11304A06A197B09072E000C880B990B0E944E16C3
S11304B06B017C01B8016A197B09072E000C880BBB
S11304C0990B0E944E169B01AC01C701B6010E9414
S11304D0B815FE01EE0FFF1FEE0FFF1FEC5BFE4F82
S11304E060837183828393830BC0FE01EE0FFF1F31
S11304F0EE0FFF1FEC5BFE4F1082118212821382FB
S11305002196C630D1050CF4B6CFDF91CF911F915F
S11305100F91FF90EF90DF90CF90BF90AF90089530
S11305201F920F920FB60F9211240BB60F922F93B6
S11305303F934F935F936F937F938F939F93AF9367
S1130540BF93EF93FF9320E030E019C0C901880FF7
S1130550991FFC01E85CFE4F40815181FC01E05E83
S1130560FE4F51834083FC01E050FF4F4081518195
S1130570FC01E45DFE4F518340832F5F3F4F2630E3
S1130580310524F36ADEFF91EF91BF91AF919F9102
S11305908F917F916F915F914F913F912F910F9028
S11305A00BBE0F900FBE0F901F9018954AE651E0B6
S11305B060E080E090DE44E751E065E080E08BDEBF
S11305C04EE751E06AE080E086DE48E851E060E012
S11305D081E081DE42E951E065E081E07CDE4CE9C6
S11305E051E06AE081E077CE08958FE687BB82EA26
S11305F08FBD8AE18EBD10927A008FE891E097BD9D
S113060086BD1DBC1CBC80E88FBF0895CF93DF93CB
S1130610CDB7DEB762970FB6F894DEBF0FBECDBF7D
S11306208FEF8ABB81E087BB11BA89BF10926A0041
S1130630CBDEDBDF98DE11DE21E030E000E010E00D
S1130640612C712C0F2EF4E6CF2ED12CF02D3A8B89
S1130650298B37C002E010E034C002E010E031C062
S113066002E010E02EC002E010E02BC002E010E037
S113067028C003E010E00F2EF4E66F2E712CF02D4D
S113068020C00F2EF3E06F2E712CF02D1AC005E060
S113069010E017C00F2EF4E6CF2ED12CF02D11C090
S11306A00F2EF4E6CF2ED12CF02D0BC00F2EF4E636
S11306B0CF2ED12CF02D05C00F2EF4E6CF2ED12C49
S11306C0F02DCBDD97DEE12CF12C0EC057019FEF0E
S11306D0A91AB90AC50181DEF701EE0FFF1FE25A1C
S11306E0FE4F918380837501A6E0EA16F10474F34A
S11306F080E090E072DE4C0187E090E06EDE5C0109
S1130700ADDEE12CF12C2DC09701220F331FC70160
S1130710880F991F880F991F880F991F820F931FA5
S113072086599E4FF701EE0FFF1FEE0FFF1FEC5B84
S1130730FE4F23812F9322812F9321812F93208198
S11307402F9327E131E03F932F939F938F930E9440
S1130750181C9FEFE91AF90A0FB6F894DEBF0FBE12
S1130760CDBFB6E0EB16F1047CF229893A89809179
S11307701E0190911F01009709F0EAC12230310552
S113078009F07FC08090540190905501A0905601CB
S1130790B09057012AE939E949E15FE3C501B401A1
S11307A00E94FE1618162CF588B3807F866088BBDD
S11307B066B577B580E090E00E944C1623E333E3FE
S11307C043E35FE30E9402170E9420167BBD6ABDCB
S11307D066B577B580E090E00E944C1623E333E3DE
S11307E043E35FE30E9402170E94201679BD68BDAF
S11307F0ADC12AE939E949E15FE3C501B4010E94C9
S1130800B41588230CF0A2C12DEC3CEC4CE45EE35F
S1130810C501B4010E94FE1618160CF097C188B3E6
S1130820807F856088BB66B577B580E090E00E94E4
S11308304C162AE939E949E15FE30E9402170E9454
S113084020167BBD6ABD66B577B580E090E00E9456
S11308504C1623E333E343E35FE30E9402170E9451
S1130860201679BD68BD3FEF85EA9EE03150804097
S11308709040E1F700C00000A1E0B0E0BA8BA98B82
S113088065C129893A892130310509F05FC1609138
S113089044017091450180914601909147012DECEE
S11308A03CEC4CEC5DE30E94B41588230CF078C05A
S11308B0609158017091590180915A0190915B01A6
S11308C02DEC3CEC4CEC5DE30E94B41588230CF059
S11308D067C060914C0170914D0180914E019091DF
S11308E04F012DEC3CEC4CEC5DE30E94FE16181617
S11308F00CF16091500170915101809152019091DD
S113090053012DEC3CEC4CEC5DE30E94FE161816F2
S11309108CF0609154017091550180915601909131
S113092057012DEC3CEC4CEC5DE30E94FE161816CE
S11309300CF00CC181E090E090931F0180931E01A4
S113094088B3807F856088BB66B577B580E090E02A
S11309500E944C1623E333E343E35FE30E94021750
S11309600E9420167BBD6ABD66B577B580E090E035
S11309700E944C162AE939E949E15FE30E94021713
S11309800E94201679BD68BD3FEF8BE594E4315099
S113099080409040E1F700C0000001E010E0D6C0C4
S11309A080904C0190904D01A0904E01B0904F0169
S11309B02AE939E949E15FE3C501B4010E94B415AC
S11309C088230CF059C02DEC3CEC4CEC5EE3C501E3
S11309D0B4010E94FE1618160CF04EC0809050010F
S11309E090905101A0905201B09053012AE939E945
S11309F049E15FE3C501B4010E94B4158823E4F51D
S1130A002DEC3CEC4CEC5EE3C501B4010E94FE16F7
S1130A10181694F588B3807F856088BB66B577B572
S1130A2080E090E00E944C162AE939E949E15FE34D
S1130A300E9402170E9420167BBD6ABD66B577B579
S1130A4080E090E00E944C162AE939E949E15FE32D
S1130A500E9402170E94201679BD68BDAFEFBAED5F
S1130A602AE1A150B0402040E1F700C0000082E03C
S1130A7090E09A8B898B6AC06091580170915901FA
S1130A8080915A0190915B012AE939E949E15FE3D8
S1130A900E94B4158823CCF488B3807F856088BB1A
S1130AA086B597B51BBC1ABC66B577B580E090E0F7
S1130AB00E944C1626E636E646E65FE30E940217DD
S1130AC00E94201679BD68BD41C0609154017091A7
S1130AD0550180915601909157012AE939E949E17C
S1130AE05FE30E94B4158823CCF488B3807F8560CB
S1130AF088BB86B597B51BBC1ABC66B577B580E0D4
S1130B0090E00E944C1623E333E343E35FE30E9447
S1130B1002170E94201679BD68BD18C088B3807F73
S1130B20856088BB66B577B580E090E00E944C167E
S1130B3026E636E646E25FE30E9402170E9420168C
S1130B407BBD6ABD86B597B519BC18BC2FDDB9CD80
S1130B508130910511F00C944015A40160E081E00E
S1130B60C7DBA50160E080E0C3DB0130110509F0BB
S1130B70E3C06091440170914501809146019091D8
S1130B8047012DEC3CEC4CEC5DE30E94FE1618167C
S1130B900CF460CD80914C0190914D01A0914E01D7
S1130BA0B0914F0189839A83AB83BC832DEC3CECD9
S1130BB04CEC5DE3BC01CD010E94FE1618160CF44A
S1130BC04CCD2090500130905101409052015090F2
S1130BD053012DEC3CEC4CEC5DE3C201B1010E94ED
S1130BE0FE1618160CF43CCD609154017091550119
S1130BF080915601909157012DEC3CEC4CEC5DE357
S1130C000E94FE1618160CF42ECD609158017091B6
S1130C10590180915A0190915B012DEC3CEC4CEC14
S1130C205DE30E94FE1618160CF420CD9BE989168C
S1130C3091E09906D8F12DEC3CEC4CEC5DE3698134
S1130C407A818B819C810E94B41588237CF52DECDC
S1130C503CEC4CEC5DE3C201B1010E94B415882365
S1130C602CF588B3807F856088BB66B577B580E056
S1130C7090E00E944C162AE939E949E15FE30E94B9
S1130C8002170E9420167BBD6ABD66B577B580E069
S1130C9090E00E944C1626E636E646E65FE30E94A4
S1130CA002170E94201679BD68BD0BCDA5E68A1AED
S1130CB09108B1E28B16B1E09B0608F002CD2DEC51
S1130CC03CEC4CEC5DE369817A818B819C810E94D0
S1130CD0B41588230CF0F5CC2DEC3CEC4CEC5DE326
S1130CE0C201B1010E94B41588230CF0EACC88B388
S1130CF0807F856088BB66B577B580E090E00E9410
S1130D004C1626E636E646E65FE30E9402170E948A
S1130D1020167BBD6ABD66B577B580E090E00E9481
S1130D204C162AE939E949E15FE30E9402170E945F
S1130D30201679BD68BDC5CC0230110509F094C3F5
S1130D4023E06216710409F06EC188B3807F856068
S1130D5088BB66B577B580E090E00E944C1620E031
S1130D6030E040E45FE30E9402170E9420167BBD3E
S1130D706ABD66B577B580E090E00E944C1623E327
S1130D8033E343E35FE30E9402170E94201679BD18
S1130D9068BD3FEF8DE490E7315080409040E1F72B
S1130DA000C0000088B3807F856088BB86B597B596
S1130DB01BBC1ABC86B597B519BC18BCAFEFB3EC15
S1130DC029E0A150B0402040E1F700C0000088B302
S1130DD0807F856088BB86B597B51BBC1ABC86B579
S1130DE097B519BC18BC3FEF8DE89CE0A1E03150E9
S1130DF080409040A040D9F700C0000088B3807FB5
S1130E00856088BB86B597B51BBC1ABC86B597B5FB
S1130E1019BC18BCBFEF23EC39E0B150204030407E
S1130E20E1F700C0000088B3807F896088BB66B5A5
S1130E3077B580E090E00E944C1626E636E646E65A
S1130E405FE30E9402170E9420167BBD6ABD66B54F
S1130E5077B580E090E00E944C1626E636E646E63A
S1130E605FE30E9402170E94201679BD68BD8FEFD0
S1130E709BE5A4E481509040A040E1F700C000004D
S1130E8088B3807F856088BB86B597B51BBC1ABCC8
S1130E9086B597B519BC18BCBFEF23EC39E0B15047
S1130EA020403040E1F700C0000088B3807F8560B7
S1130EB088BB66B577B580E090E00E944C162DECB7
S1130EC03CEC4CE45FE30E9402170E9420167BBDB9
S1130ED06ABD66B577B580E090E00E944C162DECB3
S1130EE03CEC4CE45FE30E9402170E94201679BD9B
S1130EF068BD8FEF9DE3A9E481509040A040E1F7E5
S1130F0000C0000088B3807F856088BB86B597B534
S1130F101BBC1ABC86B597B519BC18BCBFEF23EC33
S1130F2039E0B15020403040E1F700C0000088B300
S1130F30807F896088BB66B577B580E090E00E94C9
S1130F404C162DEC3CEC4CE45FE30E9402170E942B
S1130F5020167BBD6ABD66B577B580E090E00E943F
S1130F604C162DEC3CEC4CE45FE30E9402170E940B
S1130F70201679BD68BD8FEF9DE2A2E281509040BA
S1130F80A040E1F700C0000088B3807F856088BB83
S1130F9086B597B51BBC1ABC86B597B519BC18BCE9
S1130FA0BFEF23EC39E0B15020403040E1F700C0FE
S1130FB00000609158017091590180915A019091FB
S1130FC05B012DEC3CEC4CEC5DE30E94FE16181624
S1130FD00CF04FCB88B3807F856088BB66B577B54E
S1130FE080E090E00E944C162AE939E949E15FE388
S1130FF00E9402170E9420167BBD6ABD86B597B574
S113100019BC18BC8FEF93ECA9E081509040A0402C
S1131010E1F700C0000003E010E00F2EF4E66F2EAD
S1131020712CF02D4ECBB2E06B167104C9F42CE296
S1131030A21621E0B20608F424CB3FE5A31631E062
S1131040B30608F43ECB88B3807F856088BB86B541
S113105097B51BBC1ABC86B597B519BC18BC31CB67
S11310608FE5A81681E0B80608F43EC060914401FB
S11310707091450180914601909147012DEC3CEC23
S11310804CEC5DE30E94FE16181674F5609158014D
S11310907091590180915A0190915B012DEC3CECC7
S11310A04CEC5DE30E94FE161816F4F494E66916FF
S11310B07104D1F088B3807F856088BB86B597B50D
S11310C01BBC1ABC86B597B519BC18BCAFEFB3EC02
S11310D029E0A150B0402040E1F700C0000068942E
S11310E0662461F8712CEDCA35E6A31AB10887ECC1
S11310F0A816B10488F5609144017091450180916E
S11311004601909147012DEC3CEC4CEC5DE30E94D0
S1131110FE1618160CF560915801709159018091D2
S11311205A0190915B012DEC3CEC4CEC5DE30E9488
S1131130FE1618168CF494E66916710469F088B3E7
S1131140807F856088BB86B597B51BBC1ABC86B505
S113115097B519BC18BCB5CA2090580130905901F4
S113116040905A0150905B012DEC3CEC4CEC5DE35B
S1131170C201B1010E94FE161816CCF488B3807F18
S1131180856088BB66B577B580E090E00E944C1618
S11311902AE939E949E55FE30E9402170E94201613
S11311A07BBD6ABD86B597B519BC18BC8ACA809147
S11311B0440190914501A0914601B0914701898372
S11311C09A83AB83BC832DEC3CEC4CEC5DE3BC011B
S11311D0CD010E94FE161816CCF488B3807F85607A
S11311E088BB86B597B51BBC1ABC66B577B580E0DD
S11311F090E00E944C162AE939E949E55FE30E9430
S113120002170E94201679BD68BD5BCA8091540103
S113121090915501A0915601B09157018D839E8301
S1131220AF83B8872DEC3CEC4CEC5DE3BC01CD0105
S11312300E94FE161816CCF488B3807F856088BBA4
S113124066B577B580E090E00E944C162DEC3CEC3E
S11312504CE45FE30E9402170E9420167BBD6ABD26
S113126086B597B519BC18BC2CCA809148019091D9
S11312704901A0914A01B0914B0189879A87AB87B4
S1131280BC872DEC3CEC4CEC5DE3BC01CD010E9431
S1131290FE161816CCF488B3807F856088BB86B5AB
S11312A097B51BBC1ABC66B577B580E090E00E9488
S11312B04C162DEC3CEC4CE45FE30E9402170E94B8
S11312C0201679BD68BDFDC980904C0190904D01F8
S11312D0A0904E01B0904F012DEC3CEC4CEC5DE342
S11312E0C501B4010E94FE161816DCF488B3807F91
S11312F0856088BB86B597B51BBC1ABC66B577B547
S113130080E090E00E944C1623E333E343E35FE381
S11313100E9402170E94201679BD68BDC12CD12CF1
S1131320D0C98091500190915101A0915201B09186
S113133053018D879E87AF87B88B2DEC3CEC4CEC2A
S11313405DE3BC01CD010E94FE161816F4F488B3C7
S1131350807F856088BB66B577B580E090E00E94A9
S11313604C1623E333E343E35FE30E9402170E9436
S113137020167BBD6ABD86B597B519BC18BC0F2E67
S1131380F5E0CF2ED12CF02D9CC92DEC3CEC4CEC8F
S11313905DE369817A818B819C810E94B4158823E5
S11313A00CF08FC92DEC3CEC4CEC5DE369857A853F
S11313B08B859C850E94B41588230CF082C92DEC82
S11313C03CEC4CEC5DE3C501B4010E94B4158823E8
S11313D00CF077C92DEC3CEC4CEC5DE36D857E851F
S11313E08F8598890E94B41588230CF06AC92DEC66
S11313F03CEC4CEC5DE36D817E818F8198850E948D
S1131400B41588230CF05DC92DEC3CEC4CEC5DE389
S1131410C201B1010E94B41588230CF052C988B3EB
S1131420807F8A6088BB66B577B580E090E00E94D3
S11314304C1620E030E040E45FE30E9402170E9473
S113144020167BBD6ABD66B577B580E090E00E944A
S11314504C1626E636E646E25FE30E9402170E9437
S1131460201679BD68BD2DC90330110509F003C1EB
S1131470609158017091590180915A0190915B01DA
S11314802DEC3CEC4CE45EE30E94FE1618160CF0C6
S113149087C088B3807F856088BB86B597B51BBC41
S11314A01ABC86B597B519BC18BC9FEFA3ECB9E07C
S11314B09150A040B040E1F700C0000088B3807FA5
S11314C0856088BB66B577B580E090E00E944C16D5
S11314D023E333E343E35FE30E9402170E942016F1
S11314E07BBD6ABD66B577B580E090E00E944C167E
S11314F023E333E343E35FE30E9402170E942016D1
S113150079BD68BD2FEF3BE48DE121503040804030
S1131510E1F700C0000088B3807F856088BB86B592
S113152097B51BBC1ABC86B597B519BC18BC9FEF00
S1131530A3ECB9E09150A040B040E1F700C0000036
S113154088B3807F896088BB66B577B580E090E01A
S11315500E944C1626E636E646E25FE30E94021736
S11315600E9420167BBD6ABD66B577B580E090E029
S11315700E944C1626E636E646E25FE30E94021716
S11315800E94201679BD68BD2FEF30E889E2215012
S113159030408040E1F700C0000002E310E091C851
S11315A060914401709145018091460190914701F9
S11315B02DEC3CEC4CEC5DE30E94FE161816CCF4CA
S11315C088B3807F856088BB86B597B51BBC1ABC81
S11315D066B577B580E090E00E944C1623E333E3D0
S11315E043E35FE30E9402170E94201679BD68BDA1
S11315F068C8609148017091490180914A019091B5
S11316004B012DEC3CEC4CEC5DE30E94FE161816ED
S1131610CCF488B3807F856088BB86B597B51BBC46
S11316201ABC66B577B580E090E00E944C1626E6B9
S113163036E646E25FE30E9402170E94201679BD57
S113164068BD3FC888B3807F856088BB66B577B5C1
S113165080E090E00E944C1623E333E343E35FE32E
S11316600E9402170E9420167BBD6ABD86B597B5FD
S113167019BC18BC26C80430110509F04FC160918B
S113168058017091590180915A0190915B012DECA0
S11316903CEC4CE45EE30E94FE1618160CF0D0C03D
S11316A088B3807F856088BB86B597B51BBC1ABCA0
S11316B086B597B519BC18BC9FEFA3ECB9E091505F
S11316C0A040B040E1F700C0000088B3807F85608F
S11316D088BB66B577B580E090E00E944C1623E3A2
S11316E033E343E35FE30E9402170E9420167BBDAD
S11316F06ABD66B577B580E090E00E944C1623E39E
S113170033E343E35FE30E9402170E94201679BD8E
S113171068BD2FEF33E689E1215030408040E1F786
S113172000C0000088B3807F856088BB86B597B50C
S11317301BBC1ABC86B597B519BC18BC9FEFA3ECAB
S1131740B9E09150A040B040E1F700C0000088B378
S1131750807F896088BB66B577B580E090E00E94A1
S11317604C1626E636E646E25FE30E9402170E9424
S113177020167BBD6ABD66B577B580E090E00E9417
S11317804C1626E636E646E25FE30E9402170E9404
S1131790201679BD68BD2FEF33ED80E32150304032
S11317A08040E1F700C0000088B3807F856088BB7B
S11317B086B597B51BBC1ABC86B597B519BC18BCC1
S11317C09FEFA3ECB9E09150A040B040E1F700C016
S11317D00000609158017091590180915A019091D3
S11317E05B012DEC3CEC4CEC5DE30E94FE161816FC
S11317F014F00C94470388B3807F856088BB66B57A
S113180077B580E090E00E944C162AE939E949E175
S11318105FE30E9402170E9420167BBD6ABD86B555
S113182097B519BC18BC2FEF33EC89E02150304038
S11318308040E1F700C0000005E010E00C94610373
S11318406091440170914501809146019091470156
S11318502DEC3CEC4CEC5DE30E94FE161816D4F41F
S113186088B3807F856088BB86B597B51BBC1ABCDE
S113187066B577B580E090E00E944C1623E333E32D
S113188043E35FE30E9402170E94201679BD68BDFE
S11318900C946103609148017091490180914A015F
S11318A090914B012DEC3CEC4CEC5DE30E94FE1658
S11318B01816D4F488B3807F856088BB86B597B545
S11318C01BBC1ABC66B577B580E090E00E944C164C
S11318D026E636E646E25FE30E9402170E942016DF
S11318E079BD68BD0C94610388B3807F856088BB33
S11318F066B577B580E090E00E944C1623E333E3AD
S113190043E35FE30E9402170E9420167BBD6ABD79
S113191086B597B519BC18BC0C9461030530110544
S113192009F007C1609158017091590180915A01E1
S113193090915B012DEC3CEC4CE45EE30E94FE16BE
S113194018160CF088C088B3807F856088BB86B584
S113195097B51BBC1ABC86B597B519BC18BC9FEFCC
S1131960A3ECB9E09150A040B040E1F700C0000002
S113197088B3807F856088BB66B577B580E090E0EA
S11319800E944C1623E333E343E35FE30E94021710
S11319900E9420167BBD6ABD66B577B580E090E0F5
S11319A00E944C1623E333E343E35FE30E940217F0
S11319B00E94201679BD68BD2FEF3BE48DE12150D4
S11319C030408040E1F700C0000088B3807F85602C
S11319D088BB86B597B51BBC1ABC86B597B519BC30
S11319E018BC9FEFA3ECB9E09150A040B040E1F7E0
S11319F000C0000088B3807F896088BB66B577B576
S1131A0080E090E00E944C1626E636E646E25FE36C
S1131A100E9402170E9420167BBD6ABD66B577B589
S1131A2080E090E00E944C1626E636E646E25FE34C
S1131A300E9402170E94201679BD68BD2FEF36E878
S1131A4088E2215030408040E1F700C0000004E308
S1131A5010E00C9461036091440170914501809100
S1131A604601909147012DEC3CEC4CEC5DE30E9467
S1131A70FE161816D4F488B3807F856088BB86B5BB
S1131A8097B51BBC1ABC66B577B580E090E00E94A0
S1131A904C1623E333E343E35FE30E9402170E94FF
S1131AA0201679BD68BD0C94610360914801709162
S1131AB0490180914A0190914B012DEC3CEC4CEC96
S1131AC05DE30E94FE161816D4F488B3807F856007
S1131AD088BB86B597B51BBC1ABC66B577B580E0E4
S1131AE090E00E944C1626E636E646E25FE30E944A
S1131AF002170E94201679BD68BD0C94610388B357
S1131B00807F856088BB66B577B580E090E00E94F1
S1131B104C1623E333E343E35FE30E9402170E947E
S1131B2020167BBD6ABD86B597B519BC18BC0C944C
S1131B3061030233110509F05BC180904401909068
S1131B404501A0904601B09047012DEC3CEC4CECD3
S1131B505DE3C501B4010E94FE1618160CF0ACC07A
S1131B60609158017091590180915A0190915B01E3
S1131B702DEC3CEC4CEC5DE30E94FE1618160CF0C8
S1131B809BC088B3807F856088BB86B597B51BBC36
S1131B901ABC86B597B519BC18BC9FEFA3ECB9E085
S1131BA09150A040B040E1F700C0000088B3807FAE
S1131BB0856088BB66B577B580E090E00E944C16DE
S1131BC023E333E343E35FE30E9402170E942016FA
S1131BD07BBD6ABD66B577B580E090E00E944C1687
S1131BE023E333E343E35FE30E9402170E942016DA
S1131BF079BD68BD2FEF3AED8AE121503040804035
S1131C00E1F700C0000088B3807F866088BB86B59A
S1131C1097B51BBC1ABC86B597B519BC18BC9FEF09
S1131C20A3ECB9E09150A040B040E1F700C000003F
S1131C3088B3807F866088BB66B577B580E090E026
S1131C400E944C1626E636E646E25FE30E9402173F
S1131C50F7D77BBD6ABD66B577B580E090E00E949A
S1131C604C1626E636E646E25FE30E940217E8D702
S1131C7079BD68BD2FEF31E083E5215030408040CD
S1131C80E1F700C0000088B3807F856088BB86B51B
S1131C9097B51BBC1ABC86B597B519BC18BC9FEF89
S1131CA0A3ECB9E09150A040B040E1F700C00000BF
S1131CB003E310E00C9461036091580170915901A1
S1131CC080915A0190915B012DEC3CEC4CEC5DE36E
S1131CD00E94FE161816C4F488B3807F856088BB02
S1131CE066B577B580E090E0D7D72AE939E949E5C8
S1131CF05FE30E940217A4D77BBD6ABD86B597B582
S1131D0019BC18BC0C9461032DEC3CEC4CEC5DE369
S1131D10C501B4010E94FE161816C4F488B3807F6E
S1131D20856088BB86B597B51BBC1ABC66B577B50C
S1131D3080E090E0B1D72AE939E949E55FE30E9400
S1131D4002177ED779BD68BD0C946103609154017C
S1131D507091550180915601909157012DEC3CEC06
S1131D604CEC5DE30E94FE161816C4F488B3807F21
S1131D70856088BB66B577B580E090E08DD72DECA3
S1131D803CEC4CE45FE30E9402175AD77BBD6ABD6A
S1131D9086B597B519BC18BC0C94610360914801D1
S1131DA07091490180914A0190914B012DEC3CECDA
S1131DB04CEC5DE30E94FE16181614F00C946103BB
S1131DC088B3807F856088BB86B597B51BBC1ABC79
S1131DD066B577B580E090E05FD726E636E646E65E
S1131DE05FE30E9402172CD779BD68BD0C94610390
S1131DF00333110509F047C18090440190904501D7
S1131E00A0904601B09047012DEC3CEC4CEC5DE316
S1131E10C501B401F3D718160CF0A1C060915801A4
S1131E207091590180915A0190915B012DEC3CEC29
S1131E304CEC5DE3E3D718160CF091C088B3807FB7
S1131E40856088BB86B597B51BBC1ABC86B597B5AB
S1131E5019BC18BC2FEF33EC89E02150304080408E
S1131E60E1F700C0000088B3807F856088BB66B559
S1131E7077B580E090E010D723E333E343E35FE3F7
S1131E80C1D7DED67BBD6ABD66B577B580E090E08C
S1131E9003D723E333E343E35FE3B4D7D1D679BD78
S1131EA068BD9FEFA7E8B3E19150A040B040E1F7CF
S1131EB000C0000088B3807F856088BB86B597B575
S1131EC01BBC1ABC86B597B519BC18BC2FEF33ECF4
S1131ED089E0215030408040E1F700C0000088B321
S1131EE0807F896088BB66B577B580E090E0D4D602
S1131EF026E636E646E25FE385D7A2D67BBD6ABD19
S1131F0066B577B580E090E0C7D626E636E646E2C9
S1131F105FE378D795D679BD68BD9FEFA1EFBBE2AB
S1131F209150A040B040E1F700C0000088B3807F2A
S1131F30856088BB86B597B51BBC1ABC86B597B5BA
S1131F4019BC18BC2FEF33EC89E02150304080409D
S1131F50E1F700C0000004E010E00C94610360911C
S1131F6058017091590180915A0190915B012DECB7
S1131F703CEC4CEC5DE342D71816BCF488B3807F8C
S1131F80856088BB66B577B580E090E085D62AE9A0
S1131F9039E949E55FE336D753D67BBD6ABD86B5DB
S1131FA097B519BC18BC0C9461032DEC3CEC4CECBB
S1131FB05DE3C501B40122D71816BCF488B3807F51
S1131FC0856088BB86B597B51BBC1ABC66B577B56A
S1131FD080E090E061D62AE939E949E55FE312D768
S1131FE02FD679BD68BD0C94610360915401709142
S1131FF0550180915601909157012DEC3CEC4CEC2D
S11320005DE3FCD61816BCF488B3807F856088BB7A
S113201066B577B580E090E03FD62DEC3CEC4CE41F
S11320205FE3F0D60DD67BBD6ABD86B597B519BC06
S113203018BC0C946103609148017091490180912E
S11320404A0190914B012DEC3CEC4CEC5DE3D6D66F
S1132050181614F00C94610388B3807F856088BBE4
S113206086B597B51BBC1ABC66B577B580E090E021
S113207013D626E636E646E65FE3C4D6E1D579BD57
S113208068BD0C9461030433110509F047C18090C5
S1132090440190904501A0904601B09047012DEC79
S11320A03CEC4CEC5DE3C501B401A8D618160CF069
S11320B0A1C0609158017091590180915A01909189
S11320C05B012DEC3CEC4CEC5DE398D618160CF05F
S11320D091C088B3807F856088BB86B597B51BBCEB
S11320E01ABC86B597B519BC18BC9FEFA3ECB9E030
S11320F09150A040B040E1F700C0000088B3807F59
S1132100856088BB66B577B580E090E0C5D523E3EC
S113211033E343E35FE376D693D57BBD6ABD66B50F
S113212077B580E090E0B8D523E333E343E35FE39E
S113213069D686D579BD68BD2FEF3BE48DE121508A
S113214030408040E1F700C0000088B3807F8560A4
S113215088BB86B597B51BBC1ABC86B597B519BCA8
S113216018BC9FEFA3ECB9E09150A040B040E1F758
S113217000C0000088B3807F866088BB66B577B5F1
S113218080E090E089D526E636E646E25FE33AD67B
S113219057D57BBD6ABD66B577B580E090E07CD548
S11321A026E636E646E25FE32DD64AD579BD68BD1C
S11321B02FEF31E083E5215030408040E1F700C04B
S11321C0000088B3807F856088BB86B597B51BBC4B
S11321D01ABC86B597B519BC18BC9FEFA3ECB9E03F
S11321E09150A040B040E1F700C0000005E310E0CA
S11321F00C946103609158017091590180915A01C6
S113220090915B012DEC3CEC4CEC5DE3F7D518169A
S1132210BCF488B3807F856088BB66B577B580E001
S113222090E03AD52AE939E949E55FE3EBD508D5E9
S11322307BBD6ABD86B597B519BC18BC0C94610307
S11322402DEC3CEC4CEC5DE3C501B401D7D518167C
S1132250BCF488B3807F856088BB86B597B51BBC0A
S11322601ABC66B577B580E090E016D52AE939E95D
S113227049E55FE3C7D5E4D479BD68BD0C94610337
S113228060915401709155018091560190915701CC
S11322902DEC3CEC4CEC5DE3B1D51816BCF488B3E2
S11322A0807F856088BB66B577B580E090E0F4D424
S11322B02DEC3CEC4CE45FE3A5D5C2D47BBD6ABDF8
S11322C086B597B519BC18BC0C946103609148019C
S11322D07091490180914A0190914B012DEC3CECA5
S11322E04CEC5DE38BD5181614F00C94610388B3A1
S11322F0807F856088BB86B597B51BBC1ABC66B564
S113230077B580E090E0C8D426E636E646E65FE39B
S113231079D596D479BD68BD0C9461030533110554
S113232009F072C18090440190904501A09046014B
S1132330B09047012DEC3CEC4CEC5DE3C501B401DD
S11323405DD518160CF0CCC06091580170915901FC
S113235080915A0190915B012DEC3CEC4CEC5DE3D7
S11323604DD518160CF0BCC088B3807F856088BB3F
S113237086B597B51BBC1ABC86B597B519BC18BCF5
S11323802FEF33EC89E0215030408040E1F700C06A
S1132390000088B3807F856088BB66B577B580E030
S11323A090E07AD423E333E343E35FE32BD548D4CB
S11323B07BBD6ABD66B577B580E090E06DD423E35C
S11323C033E343E35FE31ED53BD479BD68BD9FEFA0
S11323D0A9E6B8E19150A040B040E1F700C0000088
S11323E088B3807F856088BB86B597B51BBC1ABC53
S11323F086B597B519BC18BC2FEF33EC89E0215092
S113240030408040E1F700C0000088B3807F8960DD
S113241088BB66B577B580E090E03ED426E636E624
S113242046E25FE3EFD40CD47BBD6ABD66B577B5F5
S113243080E090E031D426E636E646E25FE3E2D47B
S1132440FFD379BD68BD9FEFA1EFBBE29150A040DF
S1132450B040E1F700C0000088B3807F856088BB8E
S113246086B597B51BBC1ABC86B597B519BC18BC04
S11324702FEF33EC89E0215030408040E1F700C079
S1132480000088B3807F856088BB66B577B580E03F
S113249090E002D42AE939E949E95FE3B3D4D0D31F
S11324A07BBD6ABD66B577B580E090E0F5D32AE9D7
S11324B039E949E95FE3A6D4C3D379BD68BD9FEF89
S11324C0A9E6B8E19150A040B040E1F700C0000097
S11324D082E090E090931F0180931E010C946103AD
S11324E0609158017091590180915A0190915B015A
S11324F02DEC3CEC4CEC5DE381D41816BCF488B3B1
S1132500807F856088BB66B577B580E090E0C4D3F2
S11325102AE939E949E55FE375D492D37BBD6ABD05
S113252086B597B519BC18BC0C9461032DEC3CEC32
S11325304CEC5DE3C501B40161D41816BCF488B356
S1132540807F856088BB86B597B51BBC1ABC66B511
S113255077B580E090E0A0D32AE939E949E55FE363
S113256051D46ED379BD68BD0C946103609154015C
S11325707091550180915601909157012DEC3CECDE
S11325804CEC5DE33BD41816BCF488B3807F8560C3
S113259088BB66B577B580E090E07ED32DEC3CEC4B
S11325A04CE45FE32FD44CD37BBD6ABD86B597B5AD
S11325B019BC18BC0C9461036091480170914901E5
S11325C080914A0190914B012DEC3CEC4CEC5DE385
S11325D015D4181614F00C94610388B3807F8560B9
S11325E088BB86B597B51BBC1ABC66B577B580E0C9
S11325F090E052D326E636E646E65FE303D420D3E2
S113260079BD68BD0C946103C114D10409F03EC0C6
S1132610609148017091490180914A0190914B0168
S11326202DEC3CEC4CEC5DE39FD2882314F00C942D
S11326304A03609158017091590180915A01909117
S11326405B012DEC3CEC4CEC5DE38ED2882314F062
S11326500C94500388B3807F856088BB86B597B59A
S11326601BBC1ABC66B577B580E090E015D32AE9A7
S113267039E949E55FE3C6D3E3D279BD68BD0F2EDE
S1132680F4E6CF2ED12CF02D0C94610325E0C21674
S1132690D10409F03EC060914401709145018091DC
S11326A04601909147012DEC3CEC4CEC5DE35CD28F
S11326B0882314F00C9456036091540170915501D1
S11326C080915601909157012DEC3CEC4CEC5DE36C
S11326D04BD2882314F00C945C0388B3807F85600C
S11326E088BB66B577B580E090E0D6D22AE939E9AF
S11326F049E55FE387D3A4D27BBD6ABD86B597B5B0
S113270019BC18BC0F2EF4E6CF2ED12CF02D0C944E
S113271061038090480190904901A0904A01B090D3
S11327204B012DEC3CEC4CEC5DE3C501B40166D3EC
S113273018167CF5609154017091550180915601F1
S1132740909157012DEC3CEC4CEC5DE357D31816FB
S113275004F588B3807F856088BB66B577B580E073
S113276090E09AD22DEC3CEC4CE45FE34BD368D27E
S11327707BBD6ABD66B577B580E090E08DD223E37A
S113278033E343E35FE33ED35BD279BD68BD0C948E
S11327906103209058013090590140905A015090A3
S11327A05B012DEC3CEC4CEC5DE3C201B10126D3A2
S11327B01816E4F488B3807F856088BB66B577B566
S11327C080E090E069D22AE939E949E55FE31AD368
S11327D037D27BBD6ABD86B597B519BC18BC0F2E20
S11327E0F5E0CF2ED12CF02D0C946103809144019F
S11327F090914501A0914601B091470189839A8344
S1132800AB83BC832DEC3CEC4CEC5DE3BC01CD0113
S1132810F5D21816CCF488B3807F856088BB86B562
S113282097B51BBC1ABC66B577B580E090E034D28E
S11328302AE939E949E55FE3E5D202D279BD68BD09
S1132840C12CD12C0C9461038091540190915501B9
S1132850A0915601B09157018D839E83AF83B887B1
S11328602DEC3CEC4CEC5DE3BC01CD01C7D2181659
S1132870E4F488B3807F856088BB66B577B580E073
S113288090E00AD22DEC3CEC4CE45FE3BBD2D8D10F
S11328907BBD6ABD86B597B519BC18BC0F2EF5E093
S11328A0CF2ED12CF02D0C9461032DEC3CEC4CEC90
S11328B05DE3C501B401A2D21816CCF488B3807FBD
S11328C0856088BB86B597B51BBC1ABC66B577B561
S11328D080E090E0E1D126E636E646E65FE392D278
S11328E0AFD179BD68BDC12CD12C0C94610380910A
S11328F04C0190914D01A0914E01B0914F018987F7
S11329009A87AB87BC872DEC3CEC4CEC5DE3BC01B7
S1132910CD0174D21816CCF488B3807F856088BB4F
S113292086B597B51BBC1ABC66B577B580E090E058
S1132930B3D12AE939E949E15FE364D281D179BDB0
S113294068BDC12CD12C0C946103809150019091ED
S11329505101A0915201B09153018D879E87AF8799
S1132960B88B2DEC3CEC4CEC5DE3BC01CD0146D2C4
S11329701816E4F488B3807F856088BB66B577B5A4
S113298080E090E089D12AE939E949E15FE33AD26C
S113299057D17BBD6ABD86B597B519BC18BC0F2E3F
S11329A0F5E0CF2ED12CF02D0C9461032DEC3CECF2
S11329B04CEC5DE369817A818B819C81D5D088233D
S11329C014F00C9461032DEC3CEC4CEC5DE3C5017C
S11329D0B401CAD0882314F00C9461032DEC3CECB0
S11329E04CEC5DE369857A858B859C85BDD0882315
S11329F014F00C9461032DEC3CEC4CEC5DE36D8520
S1132A007E858F859889B0D0882314F00C94610357
S1132A102DEC3CEC4CEC5DE36D817E818F819885DF
S1132A20A3D0882314F00C9461032DEC3CEC4CEC03
S1132A305DE3C201B10198D0882314F00C946103C2
S1132A4088B3807F8A6088BB66B577B580E090E004
S1132A5023D120E030E040E45FE3D4D1F1D07BBD6A
S1132A606ABD66B577B580E090E016D126E636E615
S1132A7046E25FE3C7D1E4D079BD68BD0C9461033D
S1132A80029711F00C9461039DE2A91691E0B90636
S1132A90E0F0A1E98A16A1E09A06B8F088B3807F35
S1132AA0856088BB86B597B51BBC1ABC66B577B57F
S1132AB080E090E0F1D02AE939E949E95FE3A2D165
S1132AC0BFD079BD68BD0C946103B1E98B16B1E048
S1132AD09B06B8F088B3807F856088BB86B597B5C0
S1132AE01BBC1ABC66B577B580E090E0D5D02DEC60
S1132AF03CEC4CE45FE386D1A3D079BD68BD0C9473
S1132B0061032DE2A21621E0B206B8F088B3807FFB
S1132B10856088BB86B597B51BBC1ABC66B577B50E
S1132B2080E090E0B9D02DEC3CEC4CE45FE36AD15A
S1132B3087D079BD68BD0C94610388B3807F8560BC
S1132B4088BB66B577B580E090E0A6D02DEC3CEC70
S1132B504CE45FE357D174D07BBD6ABD86B597B5AD
S1132B6019BC18BC0C946103D4D008F481E0089516
S1132B700CD00AC102D140F0F9D030F021F45F3F0B
S1132B8019F0EBC0511134C1EEC00FD198F3992361
S1132B90C9F35523B1F3951B550BBB27AA2762171D
S1132BA07307840738F09F5F5F4F220F331F441F62
S1132BB0AA1FA9F333D00E2E3AF0E0E830D091509A
S1132BC05040E695001CCAF729D0FE2F27D0660F87
S1132BD0771F881FBB1F261737074807AB07B0E8C6
S1132BE009F0BB0B802DBF01FF2793585F4F2AF0DC
S1132BF09E3F510568F0B1C0FBC05F3FECF3983EC7
S1132C00DCF3869577956795B795F7959F5FC9F738
S1132C10880F911D9695879597F90895E1E0660FC1
S1132C20771F881FBB1F621773078407BA0720F03A
S1132C30621B730B840BBA0BEE1F88F7E0950895A3
S1132C40BCD088F09F5790F0B92F9927B751A0F0C6
S1132C50D1F0660F771F881F991F1AF0BA95C9F72C
S1132C6012C0B13081F0C3D0B1E00895C0C0672F65
S1132C70782F8827B85F39F0B93FCCF386957795DC
S1132C806795B395D9F73EF49095809570956195C5
S1132C907F4F8F4F9F4F0895E89409C097FB3EF4F0
S1132CA090958095709561957F4F8F4F9F4F992395
S1132CB0A9F0F92F96E9BB279395F6958795779513
S1132CC06795B795F111F8CFFAF4BB0F11F460FFD3
S1132CD01BC06F5F7F4F8F4F9F4F16C0882311F02B
S1132CE096E911C0772321F09EE8872F762F05C03F
S1132CF0662371F096E8862F70E060E02AF09A95DA
S1132D00660F771F881FDAF7880F9695879597F9CE
S1132D100895990F0008550FAA0BE0E8FEEF161668
S1132D201706E807F907C0F012161306E407F507BB
S1132D3098F0621B730B840B950B39F40A2661F02F
S1132D40232B242B252B21F408950A2609F4A140D2
S1132D50A6958FEF811D811D089597F99F6780E8DF
S1132D6070E060E008959FEF80EC089500240A94D9
S1132D701616170618060906089500240A94121652
S1132D801306140605060895092E0394000C11F485
S1132D90882352F0BB0F40F4BF2B11F460FF04C032
S1132DA06F5F7F4F8F4F9F4F089557FD9058440F8B
S1132DB0551F59F05F3F71F04795880F97FB991F96
S1132DC061F09F3F79F08795089512161306140653
S1132DD0551FF2CF4695F1DF08C0161617061806E0
S1132DE0991FF1CF86957105610508940895E894BB
S1132DF0BB2766277727CB0197F908958ADF08F464
S1132E008FEF08950BD0C0CFB1DF28F0B6DF18F0F4
S1132E10952309F0A2CFA7CF1124EACFC6DFA0F3F0
S1132E20959FD1F3950F50E0551F629FF001729F5B
S1132E30BB27F00DB11D639FAA27F00DB11DAA1F7A
S1132E40649F6627B00DA11D661F829F2227B00DC7
S1132E50A11D621F739FB00DA11D621F839FA00D52
S1132E60611D221F749F3327A00D611D231F849FA2
S1132E70600D211D822F762F6A2F11249F575040F9
S1132E808AF0E1F088234AF0EE0FFF1FBB1F661F94
S1132E90771F881F91505040A9F79E3F510570F04D
S1132EA05CCFA6CF5F3FECF3983EDCF38695779535
S1132EB06795B795F795E7959F5FC1F7FE2B880F48
S1132EC0911D9695879597F908952F923F924F9269
S1132ED05F926F927F928F929F92AF92BF92CF92A6
S1132EE0DF92EF92FF920F931F93CF93DF93CDB7AF
S1132EF0DEB760970FB6F894DEBF0FBECDBF7C017E
S1132F001B016A01FC0117821682838181FF2AC397
S1132F109E012F5F3F4F3901F7019381F10193FD2A
S1132F20859193FF81911F01882309F417C385328A
S1132F3039F493FD859193FF81911F01853231F41A
S1132F40B70190E039D456016501E6CF10E0512C69
S1132F50912CFFE1F915D8F08B3279F038F48032F6
S1132F6079F08332A1F4F92DF0612EC08D3261F035
S1132F70803369F4292D21602DC0392D3260932EC0
S1132F80892D8460982E2AC0E92DE86015C097FC2D
S1132F902DC020ED280F2A3088F496FE06C03AE0B2
S1132FA0139F200D1124122F19C08AE0589E200D62
S1132FB01124522EE92DE0629E2E10C08E3231F47F
S1132FC096FCCCC2F92DF0649F2E08C08C3621F4F7
S1132FD0292D2068922E02C0883641F4F10193FD18
S1132FE0859193FF81911F018111B3CF9BEB980FC2
S1132FF0933020F4992D9061805E07C09BE9980F6F
S1133000933008F059C1992D9F7E96FF16E09F7367
S1133010992E853619F49064992E08C0863621F4C9
S1133020392F3068932E02C01111115097FE07C03A
S11330301C3350F444244394410E27E00BC0183051
S113304038F027E017E005C027E09CE3492E02C0D2
S1133050212F412C560184E0A80EB11CF601608199
S1133060718182819381042DA301B8D26C01F9810D
S1133070FC87F0FF02C0F3FF06C091FC06C092FE7D
S113308006C000E205C00DE203C00BE201C000E08F
S11330908C858C7019F0011143C280C297FE10C058
S11330A04C0CFC85F4FF04C08A81813309F44A94F2
S11330B0141474F528E0241578F588E0482E2CC003
S11330C096FC2AC0812F90E08C159D059CF03CEF66
S11330D0C3163FEFD30674F0892D8068982E0AC07A
S11330E0E2E0F0E0EC0FFD1FE10FF11D8081803381
S11330F019F411501111F4CF97FE0EC044244394D7
S1133100410E812F90E0C816D9062CF41C1904C076
S11331104424439401C010E097FE06C01C141D040F
S113312034F4C601019605C085E090E002C081E058
S113313090E001110196112331F0212F30E02F5F2F
S11331403F4F820F931F252D30E08217930714F40D
S1133150581A01C0512C892D897041F4552031F041
S1133160B70180E290E028D35A94F8CF002321F0ED
S1133170B701802F90E020D393FC08C0552031F094
S1133180B70180E390E018D35A94F8CF97FE4AC071
S11331904601D7FE02C0812C912CC60188199909D9
S11331A0F301E80FF91FFE87ED8796012419310911
S11331B0388B2F87012F10E01195019511093FEFEE
S11331C08316930621F4B7018EE290E0F5D2C81479
S11331D0D9044CF08F8598898815990524F4ED85D8
S11331E0FE85818101C080E3F1E08F1A91082D856D
S11331F03E852F5F3F4F3E872D878016910624F032
S1133200B70190E0D9D2DBCFC814D90441F49A8134
S1133210963320F4953319F43C8534FF81E3B701E8
S113322090E048C08A81813319F09C859F7E9C87F9
S1133230B70190E0C1D2111105C094FC16C085E617
S113324090E015C0B7018EE290E0B6D21E5F82E036
S113325001E0080FF301E80FF11D8081B70190E050
S1133260ABD2802F0113F4CFE8CF85E490E0B7010F
S1133270A3D2D7FC06C0C114D10441F4EC85E4FF09
S113328005C0D194C194D1088DE201C08BE2B7018D
S113329090E092D280E32AE0C216D1042CF08F5F32
S11332A0FAE0CF1AD108F7CFB70190E085D2B70181
S11332B0C601C09681D249C1833631F0833779F093
S11332C0833509F052C01FC0560132E0A30EB11C71
S11332D0F6018081898301E010E0630111C0560189
S11332E0F2E0AF0EB11CF601C080D18096FE03C09F
S11332F0612F70E002C06FEF7FEFC60152D28C01E4
S1133300F92DFF7713C0560122E0A20EB11CF6017D
S1133310C080D18096FE03C0612F70E002C06FEFC1
S11333207FEFC60133D28C01F92DF0689F2EF3FD97
S113333018C0852D90E00817190798F4B70180E2AA
S113334090E03AD25A94F5CFF60197FC859197FE16
S113335081916F01B70190E02FD251105A9401501E
S113336011090115110581F7F0C0843611F0893671
S113337059F5560197FE09C024E0A20EB11CF601CE
S113338060817181828193810AC0F2E0AF0EB11C29
S1133390F60160817181072E000C880B990BF92DC1
S11333A0FF769F2E97FF09C0909580957095619543
S11333B07F4F8F4F9F4FF0689F2E2AE030E0A3018C
S11333C065D2C82EC6183EC0092D853721F40F7E5C
S11333D02AE030E01DC0097F8F3691F018F488355B
S11333E059F0BCC0803719F0883711F0B7C00061BC
S11333F004FF09C0046007C094FE08C0066006C04C
S113340028E030E005C020E130E002C020E132E0F5
S1133410560107FF09C084E0A80EB11CF6016081C3
S113342071818281938108C0F2E0AF0EB11CF60174
S11334306081718180E090E0A30128D2C82EC61873
S11334400F77902E96FE0BC0092D0E7FC11650F4F7
S113345094FE0AC092FC08C0092D0E7E05C0DC2C27
S1133460092D03C0DC2C01C0D12E04FF0DC0FE01C8
S1133470EC0DF11D8081803311F4097E09C002FF37
S113348006C0D394D39404C0802F867809F0D394D3
S113349003FD10C000FF06C01C2DD51478F4150DD3
S11334A01D190CC0D51450F4B70180E290E084D10A
S11334B0D394F8CFD51410F45D1801C0512C04FF37
S11334C00FC0B70180E390E077D102FF16C001FD81
S11334D003C088E790E002C088E590E0B7010CC023
S11334E0802F867851F001FF02C08BE201C080E298
S11334F007FD8DE2B70190E05FD1C11630F4B7014A
S113350080E390E059D11150F8CFCA94F301EC0D47
S1133510F11D8081B70190E04FD1C110F6CF15C0E5
S1133520F4E0F51550F584E0581A93FE1EC001111D
S113353025C02C8523FF27C00CE810E0392D3071FD
S1133540932EF8018491811121C0552009F4FCCCFB
S1133550B70180E290E030D15A94F7CFF701868129
S1133560978123C08FEF9FEF20C0B70180E290E0E6
S113357023D15A945110F9CFDACF512CB701802FAF
S113358090E01AD1D6CF00E910E0D8CF9110805244
S1133590B70190E011D10F5F1F4FD3CF23E0251562
S11335A010F483E0C1CF512CC4CF60960FB6F894C9
S11335B0DEBF0FBECDBFDF91CF911F910F91FF9062
S11335C0EF90DF90CF90BF90AF909F908F907F90BF
S11335D06F905F904F903F902F900895283008F09F
S11335E027E03327DA01990F311D87FD916000969A
S11335F06105710539F432602E5F3D9330E32A95FD
S1133600E1F708959F3F30F080387105610509F0B6
S11336103C5F3C5F3D93913008F08068911DDF93DF
S1133620CF931F930F93FF92EF92192F987F969544
S1133630E92F96959695E90FFF27E251FF4F9927B9
S11336403327EE24FF24A701E7010590089407948B
S113365028F4360FE71EF81E491F511D660F771F09
S1133660881F991F0694A1F70590079428F4E70E84
S1133670F81E491F561FC11D770F881F991F661F0B
S11336800694A1F70590079428F4F80E491F561FD5
S1133690C71FD11D880F991F661F771F0694A1F7B6
S11336A00590079420F4490F561FC71FD81F990F80
S11336B0661F771F881F0694A9F7849110951770C9
S11336C041F0D695C79557954795F794E7941A9581
S11336D0C1F7E4E9F0E0689415901591359165918E
S11336E0959105907FE27395E118F10A430B560B0F
S11336F0C90BD009C0F7E10CF11E431F561FC91FA7
S1133700D01D7EF4703311F48A95E6CFE89401500D
S113371030F0080F0AF40027021708F4202F23952D
S1133720022F7A3328F079E37D932A95E9F710C0C4
S11337307D932A9589F606949795679537951795FD
S11337401794E118F10A430B560BC90BD00998F0F2
S113375023957E9173957A3308F070E37C9320135C
S1133760B8F77E9170617D9330F0839571E37D931A
S113377070E32A95E1F71124EF90FF900F911F91C8
S1133780CF91DF91992787FD90950895FC010590CD
S1133790615070400110D8F7809590958E0F9F1F4F
S11337A00895FC016150704001900110D8F7809594
S11337B090958E0F9F1F08950F931F93CF93DF93C0
S11337C0FB01238121FD03C08FEF9FEF2CC022FF5B
S11337D016C046815781248135814217530744F42A
S11337E0A081B1819D012F5F3F4F318320838C9352
S11337F0268137812F5F3F4F3783268314C08B0187
S1133800EC01FB010084F185E02D0995892BE1F69B
S1133810D80116968D919C911797019617969C93B3
S11338208E931697CE01DF91CF911F910F9108953A
S11338300F931F93CF93DF93CDB7DEB72E970FB6B9
S1133840F894DEBF0FBECDBF0D891E8986E08C8340
S11338501A8309838FEF9FE79E838D83AE01475EB2
S11338605F4F6F89788DCE0101962FDBEF81F8854C
S1133870E00FF11F10822E960FB6F894DEBF0FBE34
S1133880CDBFDF91CF911F910F910895FA01AA271F
S1133890283051F1203181F1E8946F936E7F6E5F8F
S11338A07F4F8F4F9F4FAF4FB1E03ED0B4E03CD03D
S11338B0670F781F891F9A1FA11D680F791F8A1F20
S11338C0911DA11D6A0F711D811D911DA11D20D087
S11338D009F468943F912AE0269F11243019305D41
S11338E03193DEF6CF010895462F4770405D419332
S11338F0B3E00FD0C9F7F6CF462F4F70405D4A337F
S113390018F0495D31FD4052419302D0A9F7EACF46
S1133910B4E0A6959795879577956795BA95C9F775
S113392000976105710508959B01AC010A2E069468
S11339305795479537952795BA95C9F7620F731F21
S10F3940841F951FA01D0895F894FFCF6C
S113394CFF03FF03FF03FF03FF03FF032564004989
S111395C6E6974204F4B00252E326C660000FD
S9030000FC
